:0200000080037B
:1000030001959000A075A881758130D28875B0DF05
:100013007590C07D007F00780079047AF7EAF5A037
:1000230030A7120830A60E0830A50A0830A4120320
:10003300FAD9EA80E21168D91CB80C00B80B4580E4
:100043004A11681DED93F5901171BD00F47590C0D0
:10005300BF000980C2E8FD93F59080BB1171EFFDED
:1000630093F59080B27CFA7BFADBFEDCFA227E0801
:100073007CFA7BFADBFEDCFADEF6227CC87BFADB59
:10008300FEDCFA220DED93F590808C1DED93F59037
:100093008085C0D0C0E0EDFFD0E0D0D032F9A4B06D
:0600A300999282D88090C2
:00000001FF
