:03000000020800F3
:0C080000787FE4F6D8FD758109020847F6
:02090C003000B9
:0409070002080000E2
:10088C00E4FD7F381208DEE4FD7F0F1208DEE4FD84
:10089C007F061208DEE4FD7F011208DEE4FD7F8096
:1008AC001208DE0509E50970020508B4100AE5080E
:1008BC00B42705E4F508F50920A0E8E4FD7F011252
:1008CC0008DE740C2509F974093508AF0112090208
:0208DC0080D1C9
:050902007D010208DE8A
:1008DE008F90ED24FF92B0D2B17FE87E031208F71D
:0908EE00C2B17FE87E030208F7A5
:0B08F700EF1FAC0670011E4C70F622D3
:10080C0002088CE493A3F8E493A34003F68001F26E
:10081C0008DFF48029E493A3F85407240CC8C333ED
:10082C00C4540F4420C8834004F456800146F6DFBC
:10083C00E4800B0102040810204080900907E47E3C
:10084C00019360BCA3FF543F30E509541FFEE493B1
:10085C00A360010ECF54C025E060A840B8E493A378
:10086C00FAE493A3F8E493A3C8C582C8CAC583CAA3
:10087C00F0A3C8C582C8CAC583CADFE9DEE780BE5B
:01090B0000EB
:00000001FF
