:0300000002089360
:0C089300787FE4F6D8FD75810A020800A9
:0E08850048656C6C6F2C20576F726C642100FC
:10080000E4FD7F38120853E4FD7F0F120853E4FD26
:100810007F06120853E4FD7F01120853E4FD7F8038
:0E0820001208537BFF7A08798512082E80FE9D
:10082E008B088A09890AAB08AA09A90A12086CFF63
:10083E0060127D011208537401250AF50AE4350988
:05084E00F50980E22223
:100853008F90ED24FF92B0D2B17F647E0012089F87
:09086300C2B17F647E0002089F0F
:0B089F00EF1FAC0670011E4C70F6222B
:10086C00BB010689828A83E0225002E722BBFE028A
:09087C00E32289828A83E49322BD
:00000001FF
