:0300000002092FC3
:0C092F00787FE4F6D8FD7581350209766A
:1009F0000913453934303736313032092520636FD9
:100A000072726563740A063077726F6E670A02103D
:100A10000001020A0009020C0006020E0000020892
:020A20000000D4
:10080000120A23AF12EF3395E0FEEF640D4E70F342
:10081000751230D3E50F9400E50E64809480402279
:10082000AF0F74122FF8E6FE741B2FF8E6B506081A
:100830000509E50970020508E50F150F70D5150EBD
:1008400080D1E509640945087072F508F509F510CD
:1008500075110175990AE5116401451060F875106C
:100860000075110175990DE5116401451060F87569
:100870002E00752F01D3E52F950BE50A6480F8E56E
:100880002E64809850207510007511017424252F56
:10089000F8E6F599E5116401451060F8052FE52F9C
:1008A00070D3052E80CF75100075110175990DE577
:1008B0001164014510600302080380F3E4F508F5B4
:1008C00009F51075110175990AE51164014510606B
:1008D000F875100075110175990DE5116401451049
:1008E00060F8752E00752F01D3E52F950DE50C648A
:1008F00080F8E52E64809850207510007511017401
:100900002F252FF8E6F599E5116401451060F805EB
:100910002FE52F70D3052E80CF751000751101754E
:0F092000990DE51164014510600302080380F38F
:0F0A2300759850758920758DE6D28E75A8902232
:030023000209BB14
:1009BB00C0E0C0D075D000C000309817C2988599A0
:1009CB0012851290741C250FF8A612050FE50F70F7
:1009DB0002050E309908751000751100C299D000F0
:0509EB00D0D0D0E03285
:10093B00020800E493A3F8E493A34003F68001F2CA
:10094B0008DFF48029E493A3F85407240CC8C333BD
:10095B00C4540F4420C8834004F456800146F6DF8C
:10096B00E4800B01020408102040809009F0E47E23
:10097B00019360BCA3FF543F30E509541FFEE49381
:10098B00A360010ECF54C025E060A840B8E493A348
:10099B00FAE493A3F8E493A3C8C582C8CAC583CA73
:1009AB00F0A3C8C582C8CAC583CADFE9DEE780BE2B
:010A220000D3
:00000001FF
