:030000000208B241
:0C08B200787FE4F6D8FD7581070208A4E9
:0E08A400C288D2A8D2AF53B0EF43B01080FE8E
:03000300020800F0
:10080000C0E0C0D075D000C00753B0DFAF90D3EFC9
:10081000941C7480948050028001C392A0AF90C356
:10082000EF94387480948050028001C392A1AF90FD
:10083000C3EF94547480948050028001C392A2AF9D
:1008400090C3EF94707480948050028001C392A38F
:10085000AF90C3EF948C7480948050028001C39257
:10086000A4AF90C3EF94A87480948050028001C319
:1008700092A5AF90C3EF94C474809480500280011D
:10088000C392A6AF90D3EF94E0748094805002801E
:1008900001C392A743B02053B0EF43B010D007D0AC
:0408A000D0D0E032A2
:00000001FF
