:03000000020800F3
:0C080000787FE4F6D8FD758113020847EC
:10098800010402080C0603090C0106040302090805
:0C099800020E1770020A0BB802103A9809
:10097000C288C28A75A885850A08850B09750C008E
:08098000750D011208CB80FB8C
:1008CB00E50D6401450C701BF512F5131209440577
:1008DB0013E51370020512C39408E512648094802B
:1008EB0040EA22751200751307120944E51315131C
:0D08FB0070021512C3E5126480948050EC69
:0109080022CC
:1009440074902513F58274093512F583E493F590B8
:04095400AF09AE0831
:10095800E4FDFCC3ED9FEE6480F8EC6480985007DA
:070968000DBD00010C80EC45
:01096F002265
:0300030002088C64
:10088C00C0E0C0D075D000C000C004C005C006C018
:10089C0007E509B50B0DE508B50A08850E08850FA7
:1008AC00098006850A08850B09AF11AE101209588C
:0F08BC00D007D006D005D004D000D0D0D0E03285
:03001300020909D6
:10090900C0E0C0D075D000C000C004C005C006C09A
:1009190007E50D6401450C7006F50CF50D800675AB
:100929000C00750D01AF11AE10120958D007D00691
:0B093900D005D004D000D0D0D0E032B8
:10080C00020970E493A3F8E493A34003F68001F289
:10081C0008DFF48029E493A3F85407240CC8C333ED
:10082C00C4540F4420C8834004F456800146F6DFBC
:10083C00E4800B0102040810204080900998E47EAB
:10084C00019360BCA3FF543F30E509541FFEE493B1
:10085C00A360010ECF54C025E060A840B8E493A378
:10086C00FAE493A3F8E493A3C8C582C8CAC583CAA3
:10087C00F0A3C8C582C8CAC583CADFE9DEE780BE5B
:0109A4000052
:00000001FF
